{
  "contractName": "TextShortener",
  "abi": [
    {
      "anonymous": false,
      "inputs": [
        {
          "indexed": false,
          "name": "key",
          "type": "string"
        },
        {
          "indexed": false,
          "name": "text",
          "type": "string"
        }
      ],
      "name": "Registraction",
      "type": "event"
    },
    {
      "constant": true,
      "inputs": [
        {
          "name": "_key",
          "type": "string"
        }
      ],
      "name": "getText",
      "outputs": [
        {
          "name": "",
          "type": "string"
        }
      ],
      "payable": false,
      "stateMutability": "view",
      "type": "function"
    },
    {
      "constant": true,
      "inputs": [
        {
          "name": "_text",
          "type": "string"
        }
      ],
      "name": "getKey",
      "outputs": [
        {
          "name": "",
          "type": "string"
        }
      ],
      "payable": false,
      "stateMutability": "view",
      "type": "function"
    },
    {
      "constant": false,
      "inputs": [
        {
          "name": "_text",
          "type": "string"
        }
      ],
      "name": "register",
      "outputs": [],
      "payable": false,
      "stateMutability": "nonpayable",
      "type": "function"
    }
  ],
  "bytecode": "0x608060405234801561001057600080fd5b50611023806100206000396000f300608060405260043610610057576000357c0100000000000000000000000000000000000000000000000000000000900463ffffffff16806313f652fe1461005c578063d37aec921461013e578063f2c298be14610220575b600080fd5b34801561006857600080fd5b506100c3600480360381019080803590602001908201803590602001908080601f0160208091040260200160405190810160405280939291908181526020018383808284378201915050505050509192919290505050610289565b6040518080602001828103825283818151815260200191508051906020019080838360005b838110156101035780820151818401526020810190506100e8565b50505050905090810190601f1680156101305780820380516001836020036101000a031916815260200191505b509250505060405180910390f35b34801561014a57600080fd5b506101a5600480360381019080803590602001908201803590602001908080601f016020809104026020016040519081016040528093929190818152602001838380828437820191505050505050919291929050505061045e565b6040518080602001828103825283818151815260200191508051906020019080838360005b838110156101e55780820151818401526020810190506101ca565b50505050905090810190601f1680156102125780820380516001836020036101000a031916815260200191505b509250505060405180910390f35b34801561022c57600080fd5b50610287600480360381019080803590602001908201803590602001908080601f016020809104026020016040519081016040528093929190818152602001838380828437820191505050505050919291929050505061053a565b005b6060600080836040518082805190602001908083835b6020831015156102c4578051825260208201915060208101905060208303925061029f565b6001836020036101000a038019825116818451168082178552505050505050905001915050908152602001604051809103902060000160009054906101000a900473ffffffffffffffffffffffffffffffffffffffff1673ffffffffffffffffffffffffffffffffffffffff16141561034f5760206040519081016040528060008152509050610459565b6000826040518082805190602001908083835b6020831015156103875780518252602082019150602081019050602083039250610362565b6001836020036101000a03801982511681845116808217855250505050505090500191505090815260200160405180910390206001018054600181600116156101000203166002900480601f0160208091040260200160405190810160405280929190818152602001828054600181600116156101000203166002900480156104515780601f1061042657610100808354040283529160200191610451565b820191906000526020600020905b81548152906001019060200180831161043457829003601f168201915b505050505090505b919050565b60608061046a83610784565b9050600080826040518082805190602001908083835b6020831015156104a55780518252602082019150602081019050602083039250610480565b6001836020036101000a038019825116818451168082178552505050505050905001915050908152602001604051809103902060000160009054906101000a900473ffffffffffffffffffffffffffffffffffffffff1673ffffffffffffffffffffffffffffffffffffffff1614156105305760206040519081016040528060008152509150610534565b8091505b50919050565b606061054582610784565b9050336000826040518082805190602001908083835b602083101515610580578051825260208201915060208101905060208303925061055b565b6001836020036101000a038019825116818451168082178552505050505050905001915050908152602001604051809103902060000160006101000a81548173ffffffffffffffffffffffffffffffffffffffff021916908373ffffffffffffffffffffffffffffffffffffffff160217905550816000826040518082805190602001908083835b60208310151561062d5780518252602082019150602081019050602083039250610608565b6001836020036101000a03801982511681845116808217855250505050505090500191505090815260200160405180910390206001019080519060200190610676929190610f22565b507ff0e9e6d8010dd1b50535db444d3829b06d2396ae3feef4926ccef62de74bd7c68183604051808060200180602001838103835285818151815260200191508051906020019080838360005b838110156106de5780820151818401526020810190506106c3565b50505050905090810190601f16801561070b5780820380516001836020036101000a031916815260200191505b50838103825284818151815260200191508051906020019080838360005b83811015610744578082015181840152602081019050610729565b50505050905090810190601f1680156107715780820380516001836020036101000a031916815260200191505b5094505050505060405180910390a15050565b60608061078f610fa2565b6108ea60023386604051602001808373ffffffffffffffffffffffffffffffffffffffff1673ffffffffffffffffffffffffffffffffffffffff166c0100000000000000000000000002815260140182805190602001908083835b60208310151561080f57805182526020820191506020810190506020830392506107ea565b6001836020036101000a038019825116818451168082178552505050505050905001925050506040516020818303038152906040526040518082805190602001908083835b6020831015156108795780518252602082019150602081019050602083039250610854565b6001836020036101000a0380198251168184511680821785525050505050509050019150506020604051808303816000865af11580156108bd573d6000803e3d6000fd5b5050506040513d60208110156108d257600080fd5b81019080805190602001909291905050506008610c18565b915033816000019073ffffffffffffffffffffffffffffffffffffffff16908173ffffffffffffffffffffffffffffffffffffffff16815250508381602001819052505b600080836040518082805190602001908083835b6020831015156109675780518252602082019150602081019050602083039250610942565b6001836020036101000a038019825116818451168082178552505050505050905001915050908152602001604051809103902060000160009054906101000a900473ffffffffffffffffffffffffffffffffffffffff1673ffffffffffffffffffffffffffffffffffffffff1614158015610b565750610b546000836040518082805190602001908083835b602083101515610a1857805182526020820191506020810190506020830392506109f3565b6001836020036101000a03801982511681845116808217855250505050505090500191505090815260200160405180910390206040805190810160405290816000820160009054906101000a900473ffffffffffffffffffffffffffffffffffffffff1673ffffffffffffffffffffffffffffffffffffffff1673ffffffffffffffffffffffffffffffffffffffff168152602001600182018054600181600116156101000203166002900480601f016020809104026020016040519081016040528092919081815260200182805460018160011615610100020316600290048015610b455780601f10610b1a57610100808354040283529160200191610b45565b820191906000526020600020905b815481529060010190602001808311610b2857829003601f168201915b50505050508152505082610dfa565b155b15610c0e57610c076002836040518082805190602001908083835b602083101515610b965780518252602082019150602081019050602083039250610b71565b6001836020036101000a0380198251168184511680821785525050505050509050019150506020604051808303816000865af1158015610bda573d6000803e3d6000fd5b5050506040513d6020811015610bef57600080fd5b81019080805190602001909291905050506008610c18565b915061092e565b8192505050919050565b606060008060606000606060405190810160405280603e81526020017f303132333435363738396162636465666768696a6b6c6d6e6f7071727374757681526020017f7778797a4142434445464748494a4b4c4d4e4f505152535455565758595a00008152505160ff169350866001900492508560ff166040519080825280601f01601f191660200182016040528015610cc15781602001602082028038833980820191505090505b509150600090505b8560ff16811015610ded57606060405190810160405280603e81526020017f303132333435363738396162636465666768696a6b6c6d6e6f7071727374757681526020017f7778797a4142434445464748494a4b4c4d4e4f505152535455565758595a00008152508484811515610d3c57fe5b06815181101515610d4957fe5b9060200101517f010000000000000000000000000000000000000000000000000000000000000090047f0100000000000000000000000000000000000000000000000000000000000000028282815181101515610da257fe5b9060200101907effffffffffffffffffffffffffffffffffffffffffffffffffffffffffffff1916908160001a9053508383811515610ddd57fe5b0492508080600101915050610cc9565b8194505050505092915050565b6000816000015173ffffffffffffffffffffffffffffffffffffffff16836000015173ffffffffffffffffffffffffffffffffffffffff16141515610e425760009050610f1c565b81602001516040518082805190602001908083835b602083101515610e7c5780518252602082019150602081019050602083039250610e57565b6001836020036101000a03801982511681845116808217855250505050505090500191505060405180910390206000191683602001516040518082805190602001908083835b602083101515610ee75780518252602082019150602081019050602083039250610ec2565b6001836020036101000a0380198251168184511680821785525050505050509050019150506040518091039020600019161490505b92915050565b828054600181600116156101000203166002900490600052602060002090601f016020900481019282601f10610f6357805160ff1916838001178555610f91565b82800160010185558215610f91579182015b82811115610f90578251825591602001919060010190610f75565b5b509050610f9e9190610fd2565b5090565b6040805190810160405280600073ffffffffffffffffffffffffffffffffffffffff168152602001606081525090565b610ff491905b80821115610ff0576000816000905550600101610fd8565b5090565b905600a165627a7a72305820f27ced37590b3f3459fcd2f7b3d3bcf8c4d28934a3d97b8490e36e9a883bf9e90029",
  "source": "pragma solidity ^0.4.23;\r\n\r\ncontract TextShortener {\r\n  event Registraction(string key, string text);\r\n\r\n  struct Data {\r\n    address sender;\r\n    string text;\r\n  }\r\n\r\n  uint8 constant len = 8;\r\n  bytes constant charset = \"0123456789abcdefghijklmnopqrstuvwxyzABCDEFGHIJKLMNOPQRSTUVWXYZ\";\r\n  mapping (string => Data) keyToData;\r\n\r\n  function getText(string _key) public view returns (string) {\r\n    if (keyToData[_key].sender == 0) {\r\n      return \"\";\r\n    } else {\r\n      return keyToData[_key].text;\r\n    }\r\n  }\r\n\r\n  function getKey(string _text) public view returns (string) {\r\n    string memory key = findKey(_text);\r\n    if (keyToData[key].sender == 0) {\r\n      return \"\";\r\n    } else {\r\n      return key;\r\n    }\r\n  }\r\n\r\n  function register(string _text) public {\r\n    string memory key = findKey(_text);\r\n    keyToData[key].sender = msg.sender;\r\n    keyToData[key].text = _text;\r\n    emit Registraction(key, _text);\r\n  }\r\n\r\n  function findKey(string _text) internal view returns (string) {\r\n    string memory key = encode(sha256(abi.encodePacked(msg.sender, _text)), len);\r\n    Data memory data;\r\n    data.sender = msg.sender;\r\n    data.text = _text;\r\n\r\n    while (keyToData[key].sender != 0 && !equalData(keyToData[key], data)) {\r\n      key = encode(sha256(bytes(key)), len);\r\n    }\r\n    return key;\r\n  } \r\n\r\n  function equalData(Data l, Data r) private pure returns (bool) {\r\n    if (l.sender != r.sender) return false;\r\n    return keccak256(bytes(l.text)) == keccak256(bytes(r.text));\r\n  }\r\n\r\n  function encode(bytes32 _key, uint8 _len) internal pure returns (string) {\r\n    uint m = uint8(charset.length);\r\n    uint key = uint(_key);\r\n    string memory str = new string(_len);\r\n    for (uint i=0; i < _len; i++) {\r\n      bytes(str)[i] = charset[key % m];\r\n      key = key / m;\r\n    }\r\n    return str;\r\n  }\r\n}\r\n",
  "sourcePath": "C:\\Users\\slowa\\Documents\\code\\urlshr\\contracts\\TextShortener.sol",
  "compiler": {
    "name": "solc",
    "version": "0.4.24+commit.e67f0147.Emscripten.clang"
  },
  "schemaVersion": "2.0.1",
  "updatedAt": "2018-10-05T09:25:57.882Z"
}